S015000054726166666963206C696768742E7372656318
S11300000C942A000C9447000C9447000C9447006D
S11300100C9447000C9447000C9447000C94470040
S11300200C9447000C9447000C9410010C94470066
S11300300C9447000C9447000C9447000C94470020
S11300400C9447000C9447000C9447000C94470010
S11300500C94470011241FBECFE5D8E0DEBFCDBF0E
S113006010E0A0E6B0E0E0EDF9E002C005900D92EA
S1130070A639B107D9F710E0A6E9B0E001C01D9296
S1130080A739B107E1F70E9449000C94E6040C94E7
S1130090000083E060E00E94DF0183E061E00E94F1
S11300A0DF0183E062E00E94DF010E946C010E9494
S11300B0CA04CAE0D5E00F2EF7E0BF2EF02D00E60B
S11300C010E00F2EF1E7EF2EF0E0FF2EF02D0F2EB3
S11300D0F2E8CF2EF0E0DF2EF02DC0939400D09301
S11300E09300B09292000E946201C8010E94D00164
S11300F083E060E00E94E30119C080919600843699
S1130100E0F31092960091509093940081E06BE09C
S11301100E94AF0180E20E943801809194006C2F0C
S11301200E94DA04892F805D0E9438019091940026
S1130130992319F78FEF94E3ACE081509040A040ED
S1130140E1F700C0000083E061E00E94E30183E086
S113015060E00E94E7010E946201C7010E94D00191
S113016019C0809196008436E0F310929600915065
S11301709093930081E06BE00E94AF0180E20E94C3
S11301803801809193006C2F0E94DA04892F805DDE
S11301900E94380190919300992319F78FEF94E30B
S11301A0ACE081509040A040E1F700C0000083E043
S11301B062E00E94E30183E061E00E94E7010E94A3
S11301C06201C6010E94D00119C080919600843654
S11301D0E0F31092960091509093920081E06BE0CE
S11301E00E94AF0180E20E943801809192006C2F3E
S11301F00E94DA04892F805D0E9438019091920058
S1130200992319F78FEF94E3ACE081509040A0401C
S1130210E1F700C0000083E062E00E94E7015DCFE7
S11302201F920F920FB60F9211248F938091960014
S11302308F5F809396008F910F900FBE0F901F9049
S1130240189581E060E041E00E949B0283EF91E019
S11302500197F1F700C0000081E060E040E00E94F7
S11302609B0283EF91E00197F1F700C0000008952D
S1130270682F80E00E94F20181E062E041E00E9488
S11302809B020E94210189EF90E00197F1F700C0E1
S113029000000895682F80E00E94F20181E062E08E
S11302A040E00E949B020E94210189EF90E00197A7
S11302B0F1F700C0000089EF90E00197F1F700C06A
S11302C00000089581E00E944A0183EC99E00197BF
S11302D0F1F700C0000008958FE493EC0197F1F763
S11302E000C0000080E06FEF0E94F10181E060E057
S11302F041E00E94160281E062E041E00E941602A1
S113030081E061E041E00E94160281E061E040E0AA
S11303100E949B0288E30E944A0189EF90E00197C2
S1130320F1F700C000008CE00E944A0189EF90E0E0
S11303300197F1F700C0000081E00E944A0183ECBC
S113034099E00197F1F700C0000086E00E944A019D
S113035089EF90E00197F1F700C000000895282F7D
S11303602150223070F4613170F4662371F08130D1
S113037019F4962F91580AC0823041F4962F915463
S113038005C090E803C090E801C090E8892F0E945E
S11303904A0189EF90E00197F1F700C00000089549
S11303A0CF93DF93EC018881882331F021960E945A
S11303B0380189918823D9F7DF91CF91089541E0DD
S11303C00E941602089541E00E949B02089540E0B5
S11303D00E949B0208950E94530308950E942003E3
S11303E008950895813049F0813028F0823039F041
S11303F0833041F406C06BBB089568BB089565BBA8
S1130400089562BB0895813049F0813028F082302C
S113041039F0833049F406C08BB3089588B3089546
S113042085B3089582B3089580E00895442321F0AC
S1130430413009F07FC042C08130B1F0813030F0EA
S1130440823001F1833009F075C02AC02AB381E0FB
S113045090E0AC0102C0440F551F6A95E2F7BA015F
S1130460609562236ABB089527B381E090E0AC01F4
S113047002C0440F551F6A95E2F7BA0160956223E2
S113048067BB089524B381E090E0AC0102C0440F3F
S1130490551F6A95E2F7BA016095622364BB08951B
S11304A021B381E090E0AC0102C0440F551F6A956E
S11304B0E2F7BA016095622361BB08958130A1F02F
S11304C0813028F08230E9F08330A1F527C02AB3C7
S11304D081E090E0AC0102C0440F551F6A95E2F739
S11304E0BA01622B6ABB089527B381E090E0AC01A6
S11304F002C0440F551F6A95E2F7BA01622B67BB2D
S1130500089524B381E090E0AC0102C0440F551F6C
S11305106A95E2F7BA01622B64BB089521B381E0C6
S113052090E0AC0102C0440F551F6A95E2F7BA018E
S1130530622B61BB0895442309F441C0413009F0A2
S11305407EC08130A9F0813030F08230F1F0833008
S113055009F075C027C02BB381E090E0AC0102C064
S1130560440F551F6A95E2F7BA01622B6BBB0895DD
S113057028B381E090E0AC0102C0440F551F6A9596
S1130580E2F7BA01622B68BB089525B381E090E0DD
S1130590AC0102C0440F551F6A95E2F7BA01622B01
S11305A065BB089522B381E090E0AC0102C0440F22
S11305B0551F6A95E2F7BA01622B62BB0895813038
S11305C0A9F0813028F08230F9F08330C1F52AC0D7
S11305D02BB381E090E0AC0102C0440F551F6A9533
S11305E0E2F7BA01609562236BBB089528B381E0FA
S11305F090E0AC0102C0440F551F6A95E2F7BA01BE
S11306006095622368BB089525B381E090E0AC0156
S113061002C0440F551F6A95E2F7BA016095622340
S113062065BB089522B381E090E0AC0102C0440FA1
S1130630551F6A95E2F7BA016095622362BB08957B
S1130640813089F0813028F08230B9F0833049F567
S11306501EC029B330E0C90102C0959587956A95FB
S1130660E2F78170089526B330E0C90102C0959580
S113067087956A95E2F78170089523B330E0C90144
S113068002C0959587956A95E2F78170089520B325
S113069030E0C90102C0959587956A95E2F78170AB
S11306A0089580E008958130A1F0813028F08230EF
S11306B0E9F08330A1F527C02BB381E090E0AC01D1
S11306C002C0440F551F6A95E2F7BA0162276BBB5B
S11306D0089528B381E090E0AC0102C0440F551F97
S11306E06A95E2F7BA01622768BB089525B381E0F1
S11306F090E0AC0102C0440F551F6A95E2F7BA01BD
S1130700622765BB089522B381E090E0AC0102C08A
S1130710440F551F6A95E2F7BA01622762BB089538
S1130720442309F441C0413009F07EC08130A9F06E
S1130730813030F08230F1F0833009F075C027C089
S11307402BB381E090E0AC0102C0440F551F6A95C1
S1130750E2F7BA01622B6BBB089528B381E090E005
S1130760AC0102C0440F551F6A95E2F7BA01622B2F
S113077068BB089525B381E090E0AC0102C0440F4A
S1130780551F6A95E2F7BA01622B65BB089522B33F
S113079081E090E0AC0102C0440F551F6A95E2F776
S11307A0BA01622B62BB08958130A9F0813028F030
S11307B08230F9F08330C1F52AC02BB381E090E098
S11307C0AC0102C0440F551F6A95E2F7BA01609567
S11307D062236BBB089528B381E090E0AC0102C0B2
S11307E0440F551F6A95E2F7BA016095622368BB0E
S11307F0089525B381E090E0AC0102C0440F551F79
S11308006A95E2F7BA016095622365BB089522B345
S113081081E090E0AC0102C0440F551F6A95E2F7F5
S1130820BA016095622362BB0895CF93DF93D82FFA
S1130830C62F60E04C2F0E9490038D2F61E04C2F57
S11308400E9490038D2F62E04C2F0E9490038D2F05
S113085063E04C2F0E949003DF91CF910895CF93D2
S1130860DF93D82FC62F64E04C2F0E9490038D2F66
S113087065E04C2F0E9490038D2F66E04C2F0E9460
S113088090038D2F67E04C2F0E949003DF91CF914E
S11308900895CF93DF93C82FD62F462F417060E081
S11308A00E949B024D2F469541708C2F61E00E945F
S11308B09B024D2F4695469541708C2F62E00E9415
S11308C09B02D695D695D6954D2F41708C2F63E01B
S11308D00E949B02DF91CF910895CF93DF93C82F9D
S11308E0D62FD295D07F462F417064E00E949B02A0
S11308F04D2F42954695477041708C2F65E00E94BC
S11309009B024D2F429546954695437041708C2F1E
S113091066E00E949B024D2F441F4427441F8C2FE6
S113092067E00E949B02DF91CF910895CF93DF93FC
S1130930D82FC62F60E04C2F0E9416028D2F61E045
S11309404C2F0E9416028D2F62E04C2F0E9416023B
S11309508D2F63E04C2F0E941602DF91CF910895F2
S1130960CF93DF93D82FC62F64E04C2F0E9416023A
S11309708D2F65E04C2F0E9416028D2F66E04C2FC0
S11309800E9416028D2F67E04C2F0E941602DF9101
S1130990CF91089583B7886083BF8FE48CBF83B7FA
S11309A0816083BF83B7846083BF789489B7826092
S11309B089BF0895991B79E004C0991F961708F020
S11309C0961B881F7A95C9F780950895F894FFCFF0
S11309D072656D61696E696E67203130207365637D
S11309E00072656D61696E696E67202035207365DC
S11309F0630072656D61696E696E67203720736587
S1090A00630007050A0073
S9030000FC
